:020000040800F2
:10000000380F0020D5000008493200084B320008A4
:1000100000000000000000000000000000000000E0
:100020000000000000000000000000004D32000849
:1000300000000000000000004F32000851320008AC
:10004000E7000008E7000008E7000008E7000008F4
:10005000E7000008E7000008E7000008E7000008E4
:10006000E7000008E7000008E7000008E7000008D4
:10007000E7000008E7000008E7000008E7000008C4
:10008000E7000008E7000008E7000008E7000008B4
:10009000E7000008E7000008E7000008E7000008A4
:1000A000E7000008E7000008E7000008E700000894
:1000B000E7000008E700000853320008E7000008E6
:1000C0000348854603F0E6F8004800477D31000804
:1000D000380F00200448804704480047FEE7FEE749
:1000E000FEE7FEE7FEE7FEE795070008C10000080F
:1000F000092110B5C906884202D101214C0404E04F
:100100005049884209D101210402204600F0BDFA7D
:100110000021204600F0B9FA10BD4B49884202D1B7
:1001200001210402F1E74949884202D101210C056D
:10013000EBE74749884202D101214402E5E74549FE
:100140008842E9D101218C05DFE7F0B500220124C6
:1001500023460D6893401D409D422AD10D79012D03
:1001600001D0022D12D1876855000326AE40B74357
:1001700087604E79AE4085682E43866085889D43B2
:10018000858085888B7993401D438580066855005E
:100190000323AB409E4306600E790768AE403E43A2
:1001A0000660C6689E43C660CB79AB40C5682B43EA
:1001B000C360521C102ACBD3F0BD27490160002137
:1001C0000171012242718171C1717047012208B52C
:1001D00012040A430092C261C1610099C161C16900
:1001E000C069009008BD0246128A00200A4200D071
:1001F00001207047008A70470246928A00200A4216
:1002000000D001207047808A704781617047018566
:100210007047002A01D08161704701857047818253
:1002200070474B07DB0E9A40C90810B589000818C3
:10023000016A0F249C40A1430162016A11430162DB
:1002400010BD00000004004800080048000C0048F1
:100250000010004800140048FFFF0000F748016844
:100260000122114301604168F54A11404160016873
:10027000F44A114001600168012292049143016037
:1002800041683F22120491434160C16A0909090192
:10029000C162016BFF22543291430163416B4908F3
:1002A00049004163002181607047E44900228A705F
:1002B0008870704703460020E0495A090CD0012A93
:1002C0000CD0022A0CD0496BDA06D20E01239340DF
:1002D0000B4200D0012070470968F5E7096AF3E78F
:1002E000496AF1E718B50020052424030090112085
:1002F000FFF7E0FF0099491C0091A14201D00028BE
:10030000F5D01120FFF7D6FF002800D0012018BD3E
:10031000CA4A1168F8239943C00008431060704727
:10032000C6490028086802D00122104301E04008B5
:10033000400008607047C14A516BF8239943C000E0
:10034000084350637047BD490028486B02D0012222
:10035000104301E04008400048637047B749042259
:100360000028486B01D0904300E010434863704779
:10037000B2490A6A520852000A620A6A04239A437E
:100380000A620A6A02430A627047AC490A6A182381
:100390009A430A620A6A02430A627047A749002820
:1003A000486A02D00122104301E040084000486240
:1003B000704710B5A14A53687B24E403A3435360FC
:1003C000536808430343536010BD01229B49120642
:1003D0000028086801D0104300E09043086070478F
:1003E0000122964912040028486B01D0104300E016
:1003F000904348637047914AD16A09090901014352
:10040000D162704701228D49D2040028086801D0CA
:10041000104300E0904308607047884A53681B020D
:100420001B0A00060843184350607047834A51680E
:1004300089088900014351607047804840680C2159
:10044000084070477D4A5168F02399430143516049
:1004500070477A4A516807231B0299430143516050
:10046000704776494A6801239B039A434A604A6869
:1004700083B21A434A600A6B8B159A430A630A6B6C
:10048000000C02430A6370476C490A6B40239A438D
:100490000A630A6B02430A63704768490A6B1023B8
:1004A0009A430A630A6B02430A637047020F634967
:1004B000012A0A6B07D003231B049A430A630A6BC1
:1004C00002430A63704792089200F7E75B490A6BA0
:1004D00080239A430A630A6B02430A637047F8B5A4
:1004E000564D0446696800200C22574E114005D035
:1004F000042903D0082903D00C2918D0266018E05D
:100500006968686803228902D2030F0F1040BF1C7C
:10051000002809D0E86A0107090F3046491C02F09B
:1005200099FE7843206004E048487843FAE7484958
:1005300021606968474B0906090F5A5C21680F461C
:10054000D74067606A685205520F9A5CD740A7602F
:100550002A6BD20501D4404A05E06A68520401D4EE
:100560007A0800E0BA08E2602A6B53063B4A03D4DB
:100570003A4B1233236100E022612B6BDB0601D47E
:10058000666100E061612B6B9B070ED02B6B9B07B4
:100590009B0F012B0BD02B6B9B079B0F022B08D0C3
:1005A0002B6BDB439B0706D006E0A76104E0A1614B
:1005B00002E0A26100E0A6612B6B9B039B0F0FD0B2
:1005C0002B6B9B039B0F012B0CD0296B8903890F8D
:1005D000022909D0296B8903890F032906D006E077
:1005E000E76104E0E16102E0E26100E0E661296BBD
:1005F000090600D416482062F8BD10490A6A024371
:100600000A6270470D490028144A086A01D0104355
:1006100000E0904308627047012208491204002854
:10062000086A01D0104300E0904308627047034A13
:100630000029516914D0014313E00000001002406A
:100640000CB8FF08FFFFF6FE00127A0000093D001B
:10065000006CDC0220020020809FD500008000009A
:10066000814351617047244A0029916901D00143B7
:1006700000E08143916170471F4A0029D16901D090
:10068000014300E08143D16170471B4A0029916A10
:1006900001D0014300E0814391627047164A00296E
:1006A000D16801D0014300E08143D1607047124A14
:1006B0000029116901D0014300E0814311617047B5
:1006C0000D4A0029517A01D0014300E08143517263
:1006D00070470948416A012212061143416270477E
:1006E000054A0146926800200A4200D00120704766
:1006F00001498872704700000010024024480168D8
:100700008907890F016000218160C1600161416139
:10071000816982151143816170471D4A11688908FA
:100720008900014311607047194A0029116801D0FE
:10073000014300E0814311607047154A00291168A8
:1007400001D0014300E08143116070478A07130F15
:1007500010B50F229A408C080D49A40061188C68CE
:1007600094438C608A68984002438A6010BD0849AF
:100770008A6902438A617047054900208969C90571
:1007800000D50120704702498A6902438A61704797
:1007900000000140444801680122114301604168A2
:1007A000424A114041600168414A114001600168BC
:1007B000012292049143016041683F221204914357
:1007C0004160C16A09090901C162016B394A1140DE
:1007D0000163416B49084900416302680121090432
:1007E0000A43026002689203FCD542680323DB03DC
:1007F0009A43426000BF00BF00BF00BF42680A4387
:1008000042600021C16242680F239B049A43426008
:10081000026801231B061A43026002689201FCD59C
:10082000426892089200426000BF00BF00BF00BF54
:10083000426802231A43426042681207920F022A5A
:10084000FAD18160704770B5174D69680C2001407E
:1008500019481A4C05D0042903D0082903D00C29C3
:1008600020D0206014E06A68696803239202DB03E9
:10087000160F1940B61C002907D0E96A0907090FAD
:10088000491C02F0E7FC7043EBE70D484643266045
:1008900068680A490006000F091D085C2168C1400C
:1008A000216070BD0748DCE7001002400CB8FF086B
:1008B000FFFFF6FE2CFEFCFF00127A003002002043
:1008C00000093D00006CDC0227490A680260898843
:1008D00081807047F8B515460E46074600F02BFBA1
:1008E000040004D12A463146384600F0C6FE2046B0
:1008F000F8BD10B500F054FB10BD10B5044600F073
:100900001AFB002802D1204600F07AFB10BD10B57A
:1009100000F0A2FB10BD10B500F00CFC044600F086
:10092000BBFC204610BD014609680120002900D10A
:10093000002070478188002904D0491E0904090C51
:10094000818002D108490968016080887047016888
:10095000002902D0491E0160704781880029FBD11F
:100960000121818070470000D8320008F8B50020CE
:1009700069460880174800240588466807E0A000FB
:10098000315868468847002803D0641CA4B2AC42A2
:10099000F5D368460088F8BD10B500F0DFFE0028EA
:1009A00001D000F0C9FE10BD70B50546002000F072
:1009B000D8F8040003D100F002F901202880204675
:1009C00070BD10B5044600F0B5FB002801D102212E
:1009D000218010BDE832000810B5884203D00028FD
:1009E00001D000F05FF810BD002805D0002301E021
:1009F000C1545B1C9342FBD3704708B501460222E9
:100A0000684600F04FF86846008840BA08BD08B54F
:100A100001460222684600F045F86846008808BD95
:100A200008B501460422684600F03CF8009800BA78
:100A300008BD08B501460422684600F033F8009866
:100A400008BD08B549BA6A4611800222694600F01D
:100A500029F808BD08B56A4611800222694600F0EF
:100A600021F808BD08B509BA00910422694600F0D2
:100A700019F808BD08B500910422694600F012F883
:100A800008BD10B501E05B1E9BB204680C409442A7
:100A900002D0002BF7D103E0002B01D0002010BDC5
:100AA000012010BD10B5002302E0CC5CC4545B1CD7
:100AB0009342FAD310BD000070B55F4C0346258801
:100AC00001209D4218D9002916D064681B01E41842
:100AD000A3688B4201D0002B0ED10E4615466088CC
:100AE00000F03BFD002808D0E168002904D0324620
:100AF0002846FFF771FF002070BD60882B46A26872
:100B0000616800F0BDFC70BD70B54B4C13460246E9
:100B100025880120954210D900290ED06468120161
:100B2000A2181488022C08D194688C4205D15088F0
:100B300054680A46214600F0BBFC70BD10B53E4A21
:100B40000146138801208B420AD9526809015418C2
:100B5000E368002B04D06088A268616800F0A8FCFC
:100B600010BD70B5344A01461388012088B08B420D
:100B700017D9526809015418E168002911D060881A
:100B80006B46A268616800F07BFC002809D1002157
:100B90006B46A26808E0E5685E5C6D5CB54202D019
:100BA000012008B070BD491C8A42F4D8F9E7224AF6
:100BB0000146128801208A4200D90020704710B5F2
:100BC0001D4A01461388012088B08B421BD9526808
:100BD000090153181988022915D1D968002912D0A2
:100BE0009A68002A0FD000206A4603E00C5CE443B8
:100BF0001454401C9C688442F8D85888596822468E
:100C00006B4600F055FC08B010BD0B490A888242C3
:100C100004D949680001801C085A7047074870478A
:100C200005490A88824204D94968000108300858F9
:100C30007047002070470000CC330008FFFF000021
:100C400070B5994D01242888260386B0B04202D1A0
:100C5000002006B070BD9548FFF7EBFE944988422E
:100C600014D19248001DFFF7E4FE924988420DD14D
:100C7000914840684068049001204007C168684678
:100C8000884768464478002C00D12E802046E0E753
:100C900000B50120400785B001696846884768466D
:100CA0004078002802D1804A0021118005B000BDA3
:100CB00010B586B001AB07C37F4801244068406887
:100CC0000490684600F098FF68464078002800D1FC
:100CD0000024204606B010BDF0B5044689B0C068B7
:100CE00000902188628800276068914201D1A6683F
:100CF00004E0216A0A68496851180E1A0290E069F6
:100D000001903046009902F0A5FA054607911CE0D3
:100D1000676A206A019B009A0299B847070025D1AB
:100D2000009902986D1E4018029001984018019099
:100D30006169A06940187D21C900A061884204D979
:100D40000020A061012000F090FC002DE0D1079967
:100D5000002907D00A46656A206A019B0299A847C4
:100D6000070003D12661A068801BA060384609B047
:100D7000F0BD30B585B00D4601914F490393029205
:100D80004968012449680491C168284602F062FA62
:100D9000002908D16007816968468847684640781D
:100DA000002800D10024204605B030BDF0B5012454
:100DB0000023002A0FD0414E35688D420BD876684B
:100DC000AF198F4207D94D1B5219964203D30380A6
:100DD0004380002441602046F0BD30B50D463249C5
:100DE00014460988012212038BB0914202D00120DF
:100DF0000BB030BD01462A466846FFF7D7FF0028F2
:100E0000F6D12F4809900020069002200590029507
:100E1000684600882949000140180890C06803907E
:100E200007946846FFF758FFE2E710B586B0002048
:100E30000390214802920191406801244068049087
:100E4000600741696846884768464078002800D1B5
:100E5000002420463EE710B50C46134901220988BC
:100E600012038AB0914202D001200AB010BD01469F
:100E700022466846FFF79AFF0028F6D111480990EC
:100E80000020FF21029409310690079005916846E1
:100E900000880A490001401808908068039068465D
:100EA000FFF71AFFE1E700006002002004000020C5
:100EB0003150455800030100A83800084C3700089D
:100EC000730D00082B0E0008F8B50024FD4E27E036
:100ED00020463822F16850430D18A88DFFF767FEB1
:100EE000002801D0102017E0A88DFFF73AFE002857
:100EF0001AD0A88DFFF789FE074600F021FB0028D5
:100F000009D0384600F085FA002804D1A88DFFF7F3
:100F100028FE002808D00220A968641C0880A4B21A
:100F20007088A042D4D8F8BD0120F5E710B5FFF7CE
:100F3000CBFF002010BDF8B5844601208B186D460C
:100F40008B4213D30022DF4F13E03824F868544358
:100F50000419266A646A012034198E4207D8A34214
:100F600005D82A80614692B200200A80F8BD521C42
:100F700092B27C889442E8D8F8BDD24902884B8866
:100F80009A420CD2C96838235A43891889680A885A
:100F9000042A01D102220A800021C943018070473E
:100FA000FFB50E4681B01D460446194600F0C3F950
:100FB000002814D1C3483822C16820880227504332
:100FC0000C18A16A2B46039A3140A08900F070FAF0
:100FD000002800D10427002C01D0A1680F8005B0A3
:100FE000F0BD10B50446008EFFF7E1FD002801D0EA
:100FF000002010BD208EB44A0A21FFF785FD10BDE8
:1010000070B50446012100F096F9050022D1AD48E3
:101010003822C168208850430C18A0680088042832
:1010200011D0216AA06A02260140A089626A00F0FC
:1010300057FA002800D0012005462046FFF7D1FFCF
:10104000284303D101E0012504E04026002C01D013
:10105000A0680680284670BDF7B582B015460446E4
:10106000114600F068F90028B9D196483822C168C5
:101070002088022650430F1803980090204600F065
:1010800067F9002804D120882A46009900F0CBFB9C
:10109000002800D10826002FA1D0B9680E809EE755
:1010A00001460120002910D00A8886494B889A42BF
:1010B0000BD2C96838235A4389188A681288082ACB
:1010C00003D10988042900D0002070471CB50146CF
:1010D000012000292DD00A887A494B889A4228D2CB
:1010E000C96838235A438A1891680988082920D189
:1010F000118804291DD1801E69460880116A906AF2
:1011000001AB01409089042200F0BAF900280CD10B
:1011100001A8FFF77CFC044601A80230FFF777FC2A
:1011200001466A46204600F0F2F96846008800F061
:1011300070F91CBD10B500200146624B0FE038224B
:10114000DC684A43A21892681288012A05D0082A4E
:1011500003D0102A01D0012010BD491C89B25A8841
:101160008A42ECD810BD10B5564900244988814206
:1011700001D900F052FB204610BD10B501460A8887
:10118000504901204B889A4210D2CB6838215143F4
:101190005C18A1680988402909D0082907D01029BE
:1011A00005D0042901D0802900D1652010BD10464A
:1011B000FFF7D9FFA16880200880002010BD4149B9
:1011C0003823CA68414965200988594351188968FC
:1011D0000988802901D0042900D1002070473949AD
:1011E0003823CA6839490120098859435118896848
:1011F0000988802900D10020704732493823CA6805
:1012000032490020098859435118896809880429FE
:1012100000D0652070472B493822C9685043001D13
:10122000085800687047274A3823D2685843001D81
:1012300010580160704747E610B504468068008882
:10124000082804D0012816D0102814D00EE0A08D54
:10125000FFF7ADFC002801D010200AE0A08DFFF7B9
:101260006DFC002804D0A16802200880012010BD78
:101270000120A1680880002010BD10B5114A01218D
:101280005388834206D9D168382250430818FFF7A3
:10129000D3FF0146084610BD70B500263446094DFF
:1012A0000AE03820E96860430818FFF7C5FF002806
:1012B00000D00126641CA4B26888A042F1D8304650
:1012C00070BD0000CC37000898060020A40600205E
:1012D00010B5414A0146538801208B4211D9D0688C
:1012E000382251434418A08DFFF761FC002802D03A
:1012F0000020102103E0A08DFFF761FC0221A2680D
:10130000118010BD10B5344B01225C88844209D98C
:10131000002907D0DA6838235843083010580022D3
:1013200000880880104610BD10B501460A222B48DF
:10133000FFF752FB10BD02460120002A07D000290A
:1013400005D01188244A5288914200D2002070476B
:10135000FEB50546002001901F483822C168288844
:1013600050430F1868690290A8690090C405E40D05
:1013700001D101246402B96A0298194B0140B8896D
:10138000224600F07DF8002806D12888144A21461C
:1013900000F046FA060001D001261AE00098001B72
:1013A00000900298001902900E48012440686402DF
:1013B0004068804701987D212030C9000190884213
:1013C00004D300200190012000F04FF9009800287C
:1013D000D1D13046FEBD0000CC3700089806002071
:1013E00098040020A838000870B501200024684D3A
:1013F0000BE069682201895A090404D4204600F0F0
:10140000BBF8002804D1641CA4B22988A142F0D8FA
:1014100070BD10B55E4A0146128801208A4202D989
:10142000084600F0A9F810BD10B5594A01211388EB
:10143000834209D9526800010C30105800214068DD
:10144000002801D080470146084610BD70B5504CB9
:10145000054626880120AE4211D98E188E420ED341
:10146000002B0CD02A01151D636864685B59083293
:10147000A258994203D399188E4200D8002070BD1B
:10148000F8B51D4616460F460446FFF7DFFF002855
:101490000BD13F48416820010C300858C368002B2D
:1014A00004D02A46314638469847F8BD0120F8BD99
:1014B000F8B51D4616460F460446FFF7C7FF00283D
:1014C0000BD13348416820010C3008588368002B49
:1014D00004D02A46314638469847F8BD0120F8BD69
:1014E00070B515460E4604460123FFF7AFFF0028EE
:1014F0000AD12748416820010C3008580269002AA7
:1015000003D029463046904770BD012070BDF0B52C
:101510000646012000231E4C0EE067681D017F5B1C
:10152000B74207D16768AD1C7D5B8D4202D1138045
:101530000020F0BD5B1C9BB225889D42EDD8F0BD1C
:10154000134A0146138801208B4205D952680901CC
:10155000515A090400D5002070470D4A01461388EE
:1015600001208B4207D9526809010C315158C968D2
:10157000002900D000207047054A01465268090141
:101580000C31515800200968002900D008477047E5
:10159000243800080C480D4940680860406800285D
:1015A00001D040680047704708480068406800283C
:1015B00001D000690047704704480068406800286F
:1015C00001D04069004770473838000864020020A5
:1015D00010B500F031FB7C487A49418000217B4CFA
:1015E0000170206900688047E06800688047FFF765
:1015F0009DFC10BD10B500207549C0430880FFF761
:10160000C9FFFFF7F1FE040001D100F0EBF820461E
:1016100010BD30B46F490B884A6800210AE0CC0045
:10162000145B844204D1C8008018406830BC004775
:10163000491C89B29942F2D330BC704770B5634CF3
:101640000546E0688068804700280DD1A8475E48BD
:101650000178012908D14188491E0904090C4180FB
:1016600002D101706069804770BD5B4980000858F5
:10167000004755495348488070478261416170472F
:101680000022042902D289000818426890008008CC
:1016900070478A0F920010188900426889080A432F
:1016A0004260704710B58B009B085C1E234208D136
:1016B0001A4206D0890F89000918486890431843D8
:1016C000486010BD8A0F92001018444B42688B434B
:1016D0001A404260704700210A468B001B18491CC3
:1016E00089B25A600429F8D370478B0F89000246EB
:1016F00089089B009A18526801200A4200D00020F5
:1017000070478B0F8900024689089B009A1852681F
:101710000120914300D1002070478B0F02469B00AF
:101720009A1852688900012089080A4003D0511E86
:101730000A4200D10020704710B500F080FA00F096
:101740009EFA224C206940688047E06840688047E4
:1017500000F073FA00F074FA10BD7047F0B585B070
:1017600003A801241425029005206946174E88809D
:101770003069816868468847002812D168464088E9
:10178000012403A905280CD30024154A20460B5C2C
:10179000175CBB4201D0012403E0401C80B2052845
:1017A000F5D3F06880688047002800D16D1E002CBA
:1017B00002D0002DDCD102E0034901200870204650
:1017C00005B0F0BD8813000068020020A8380008AA
:1017D000A40600208838000898380008FFFFFF3F63
:1017E0009038000810B5114800688047104800681C
:1017F000804710BD0E49496808470D4A9268104756
:1018000030B404460120042905D109481146C368B3
:10181000204630BC184730BC704704494968084727
:10182000024B9B681847014BDB681847D03800080B
:10183000C0380008F0B5E849E74F095C0124890089
:101840003F1D7D58E34A2B680226B3432B607D5829
:101850002B6823432B607B5801E0521E92B21D6817
:10186000ED0741D0002A51D0DA4A1D68ED07ED0F8F
:101870004CD0D94E0C25684308368519AF68351F02
:10188000DF61335868580360685843681B0701D507
:1018900008234360D148036801252B4303600023DC
:1018A000C3610723C3600023CB4EDD001436AE199D
:1018B0002D1837692F6476696E645B1CDBB21C2BB4
:1018C000F2D300234360022343610723C36103680B
:1018D0005B085B000360C048001D43581D686D082D
:1018E0006D001D60405804E0002AB6D10EE0521E83
:1018F00092B24168C90702D0002AF8D106E0002A56
:1019000004D040688007800F00D100242046F0BD3D
:1019100070B500F021F90024B14D0126285D0128A1
:1019200009D02046FFF786FF002802D00021295564
:1019300070BD2E5500E00020641C2406240EEDD05E
:1019400070BD30B5A64B0020195C002913D0A24908
:10195000A44C095C8A00A049091D8D582C60895847
:10196000A14CCC619D49A14A0A600022CA61CA60AB
:101970004A604A611A54401C0006000EE4D030BD93
:10198000F8B507460088964B0122195C012948D119
:101990009149914C095C241D8E00A159FF25813588
:1019A0004D59ED073DD10222FF251A548135485982
:1019B00040084000485178689102884201D24005B1
:1019C00001E0C000001DA1594851B8680090401CBA
:1019D00001F056FC01020098FF2200780143A05953
:1019E00089328150B8680090401D01F049FC010225
:1019F0000098FF2200790143A0598D328150A159EE
:101A0000FF2085300A58120912010A50A1590A58BC
:101A10007B881A430A50A059415901221143415170
:101A200000221046F8BDF1B5012082B000256A49B8
:101A3000694B495D00241B1D8E009959A2000C3290
:101A40008A58920756D020010246FF32B13213461F
:101A50008A58970743D4C958520701D4490D00E06A
:101A6000C908029A034651605B4AFF33121D975919
:101A7000B533FB581F07029B3F0F5F805C4B9942B9
:101A800001D1002304E05A4BD633994202D10123FD
:101A900002990B8091590246FF32B9328F586B463A
:101AA0001F708B581F0A6B465F708B581F0C6B465C
:101AB0009F708A58FF30120EDA70BD300A581A71C2
:101AC0000A58120A5A710A58120C9A7108580822B8
:101AD000000ED871029819460830FEF77DFF3E4887
:101AE000001D8159A0000C300A5820231A430A50C7
:101AF000002003E0641CE4B2022C9FD36D1C2D0671
:101B00002D0E94D0FEBDF0B5354A3349145C012347
:101B1000095C022C1DD18C002F49091D0E59B56896
:101B2000EF070125002F02D0B560155400230E5990
:101B3000B768FF0504D5FF230133B36015540023B4
:101B400009598C68E40304D501231B048B601554E8
:101B500000231846F0BD7047FEB501214804FEF78A
:101B600066FD01218804FEF762FD01214806FEF7AB
:101B700083FD0120C0020090012468460471002505
:101B8000457185711B4EC47169463046FEF7DDFA1A
:101B900020020927FF06B86104220B213846FEF710
:101BA00040FB04220C213846FEF73BFB0320C00219
:101BB0000090022168460171032141718571C47151
:101BC00069463846FEF7C1FAB08AE1020843B0829E
:101BD000FEBD000010270000E0380008006600404D
:101BE0006C0200200200010000002301010E1C2AEB
:101BF000090700000004004830B50021C4684368AC
:101C0000826802E05D5C6554491C9142FAD3002170
:101C1000417030BD134610B50A461946FEF7DCFE8A
:101C2000002010BD13460A4610B501461846FEF7BF
:101C3000D3FE002010BD000070477047704770470A
:101C400070B50F4948690F4A10400122520790426F
:101C500014D18C69486980F30888002083005D18DE
:101C60006D69401CD5503028F8D301210846FEF795
:101C7000FAFC0320FEF751FDA04770BDFEE7704758
:101C8000005000080000FE2F10480F49416100215C
:101C900081610721016170470C4901200A69D20363
:101CA00008D500208861084848610869012210436E
:101CB0000861002070470548016949084900016131
:101CC0000021416181617047FF7C000000E000E07D
:101CD0000F480E4901600F49016000214160FF215A
:101CE000F5318160C1680029FCD10B490160704762
:101CF00070470749084808607047BFF34F8F08498D
:101D00000648C860BFF34F8FFEE70000CCCC000050
:101D10000030004055550000AAAA00000400FA0552
:101D200000ED00E04648008B010446480160416038
:101D3000704770B5434C4500241F665B211D82002F
:101D4000414B8858012E04D1002666533F4C24682D
:101D500020433F4C6043885000D18B5070BD0A46F1
:101D600010B53849800009581046FEF783FE10BDB3
:101D700070B50E46012400F009F805463046FEF71E
:101D800058FE854200D10024204670BD30B5810048
:101D90002C4A85B051582F4C029102A96A4601ABDA
:101DA0000028019426D000200C5C1D5C6C4014546B
:101DB000401CC0B20428F7D3107802076846417867
:101DC000120F0809130100010343684603730B0156
:101DD000817808090343684643730B09C1781B01E6
:101DE000080903436846090183731143C1730398CB
:101DF00005B030BD00200C5C1D5C6C401454401CD0
:101E0000C0B20428F7D3117852780B011007000FE5
:101E1000034368460373130982781001034368463D
:101E200043731309C278100900010343684612077F
:101E30008373120F080902436846C273D7E7000094
:101E400000E000E074020020120035127C02002045
:101E5000A741000083BE72F910B500F02DFC00F020
:101E6000FDFFFA4800244472FEF72EFDF84800F00A
:101E700025FB204610BD10B5F448FEF768FD01F0C3
:101E80006CF800F0D8FC01F062F810BD10B500F05D
:101E9000CBFB00F0DEFB00F0EEFB10BD70B50E4694
:101EA000EB4915460024491CEA48FFF71EFC0028B0
:101EB00007D0E749E748C91CFFF717FC00280CD0FA
:101EC00010E001F0C9F8002803D0E349082000F031
:101ED00013FBE2484069804708E001F0B9F8DC48AC
:101EE00000F0ECFA304600F0FCFA2880204670BD85
:101EF000F8B50F4615460024D549D648FFF7F5FB3F
:101F0000002807D0FF2601363146D248FFF7EDFB07
:101F1000002801D0222410E03146CE48FFF7D2FB42
:101F200001F090F8CB48FFF728F8C948401C00F0B2
:101F3000C5FA384600F0D5FA28802046F8BD70B5BD
:101F40000E46C34915462224491CC248FFF7CDFB63
:101F500000280AD001F076F8BD48C01C00F0AEFAA7
:101F6000304600F0BEFA28800024204670BD10B52F
:101F7000002401F071F8002804D0B749082010317E
:101F800000F0BAFAB54840698047204610BD70B5E8
:101F900015460A46002415210320FEF78DFD002872
:101FA00001D0222401E015202880204670BD70B5A4
:101FB00015460A4600240C210420FEF77DFD00286A
:101FC00001D0222401E00C202880204670BD70B58D
:101FD00015460A4600240A210520FEF76DFD00285B
:101FE00001D0222401E00A202880204670BD70B56F
:101FF00015460A4600240A210220FEF75DFD00284E
:1020000001D0222401E00A202880204670BD70B54E
:1020100015460A46002410210620FEF74DFD002833
:1020200001D0222401E010202880204670BDF8B5A0
:1020300015460F4600248548FEF775FC002801D0A0
:10204000372417E086498348FFF74FFB002815D057
:10205000844E80483146FFF748FB002814D000200A
:10206000FFF7C8FB39460020FFF7C7FB3146794828
:10207000FFF70FFB042028802046F8BD0422002132
:102080003846FEF7B1FCF5E739460020FFF7B5FB0F
:10209000F0E7F8B515460F4600246C48FEF743FC00
:1020A000002801D0372417E06F496A48FFF71DFB6D
:1020B000002815D06D4E67483146FFF716FB002803
:1020C00014D00120FFF796FB39460120FFF795FB5E
:1020D00031466048FFF7DDFA042028802046F8BD2D
:1020E000042200213846FEF77FFCF5E7394601203F
:1020F000FFF783FBF0E7F8B50E46074615460024C8
:1021000058495448FFF7F1FA002801D0242422E06E
:10211000324639460020FFF773FB554E00280ED09B
:102120004A48FEF707FC002801D0352413E048494F
:102130003246FF314748FFF7B5FA36240BE000205E
:1021400028804C4A4C494348FFF7ACFA3246444990
:102150004048FFF7A7FA2046F8BDF8B50E460746F7
:102160001546002441493B48FFF7BFFA002801D03B
:10217000242422E0324639460120FFF741FB3D4E40
:1021800000280DD03148FEF7D5FB002801D03524BA
:1021900013E0324638492F48FFF784FA36240CE022
:1021A00000202B492880324AFF312A48FFF77AFA6B
:1021B00032462D492748FFF775FA2046F8BD0978C1
:1021C0000020032901D03120704700211180704781
:1021D00010B514460846FFF7A7F810211D48FFF771
:1021E00058FA0020208010BD10B500240C7001208A
:1021F000108001021748FFF74CFA204610BD00205E
:10220000108070471CB5032269460A707F224A700D
:1022100088707820C870CC20087148718871C871A6
:10222000082000F069F900F01EFF1CBDF7B5087822
:1022300000250C46442801D013253BE050210548D9
:10224000FFF753FA002819D0222533E0C4060020F6
:1022500001000040A406002074390008A8380008D6
:102260000002004000040040002000400040004008
:102270000007004000700040001000401021AC48F2
:10228000FFF720FA601CFEF7CBFB0646601DFEF749
:10229000C7FB0746A74931204872FFF7B3FF3A460C
:1022A0003146A348FEF729FB0121002804D0217004
:1022B000029801802846FEBD00202070F8E770B526
:1022C0000C469C49312015464872FFF79BFF984801
:1022D000FEF7FCFE0126002803D026702E80002089
:1022E00070BD0020207040219148FFF7D2F9F5E73A
:1022F000F8B517460C460026FEF70DFB0125002811
:1023000006D025708B4800F008F93D803046F8BDB6
:1023100000202070F6E731207047F7B508780024D8
:102320000D46002802D16878442801D022241CE000
:10233000A81CFEF775FB0746A81DFEF771FB0600FB
:1023400007D0024639467A48FEF7C4FA00280BD176
:1023500001E0312409E07648FEF70FFF652809D037
:10236000012809D0002809D01024724800F0D5F8BF
:102370002046FEBD2424F8E77224F6E720202870CA
:102380006D49681CFEF75DFB6A480121C760066164
:102390000172029803210180EAE7F7B5441E0F4657
:1023A00000256348FEF70BFF652807D06148067AD1
:1023B0005F48FEF714FF002802D004E0242524E043
:1023C0003878B04205D13878B04204D0761EB04299
:1023D0001ED0732519E0574E012031694002814219
:1023E00002D9844202D103E0A14201D013250CE0BE
:1023F00036207072FFF706FF7B1C22464C48F168BE
:10240000FEF777FA002805D072254A4800F085F8D3
:102410002846FEBD029801210180307A401C3072AE
:10242000F0680019F0603069001B3061F0E7F8B522
:10243000074615460E4600243D48FEF7DEFE0028FE
:1024400004D03C4800F069F824240BE039493720D7
:102450004872FFF7D7FE324639463548FEF757FA3D
:10246000042028802046F8BD0020108070470020FE
:10247000108070472F48407AC4E610B500F0E2FDA6
:102480002E4A2B48511FFFF70DF92D49082000F067
:1024900033F810BD2A4910B50831082000F02CF897
:1024A00010BD274910B51031082000F025F800F0C4
:1024B000C9FD2248C01E00F001F810BD10B51F492B
:1024C0000446204AF9311A48FFF7ECF81E4A1F4922
:1024D0001748FFF7E7F8194A21461548FFF7E2F8D1
:1024E00010BD00220270322242700122042182704B
:1024F000F422C2700846704710B50A460146144CD3
:10250000002000F02FF800E0641E002000F07EF8AC
:10251000002801D0002CF7D110BD10B50021C160FA
:1025200001610172FF2151310148FFF7CBF810BD65
:10253000A4060020C406002002020000070000409C
:102540007C39000800070040007000400010004087
:10255000400D030010B5FFF7DBF910BD10B5FFF714
:10256000F0F910BD3EB5464B01241D88854213D9B4
:10257000082911D8002A0FD0C0005D68841C2D5B8B
:102580006C4625805B68001D185801906180684684
:102590000292FFF7F5F9044620463EBDF8B5044621
:1025A00038480125068847682046FFF73CFA00288E
:1025B0000FD010E0C100C9194A8823889A4206D179
:1025C00049686268914202D12080002503E0401CE6
:1025D00080B2B042EED32846F8BD7FB505466846C6
:1025E000FFF7DCFF06000ED168464088AC88A042A9
:1025F00000D80446224602A9A868FEF7EDF968460D
:10260000008828806C80304604B070BD10B51C4A2C
:102610000146138801208B4205D95268C800801CEE
:10262000105AFFF770FA10BD70B50024144D0CE07D
:10263000E0006968801C085AFFF765FA002802D19B
:10264000A96820468847641CA4B22888A042EFD815
:1026500070BD1FB56846FFF7A1FF00280AD10A48E0
:102660000A4980690860074A68464188936800887B
:1026700002AA98471FBD10B5FFF76DFA10BD000004
:10268000143300080833000800E000E07C0200205A
:102690000022027042704B7B43718B7B8371CB7B3A
:1026A000C3714B78037242820A78002AF74A00D03D
:1026B0000832C2618161704770B5F54DF54E002456
:1026C0006001210140198919FFF7E2FF641CA4B2DF
:1026D000022CF5D3EE4D0024EF4E40356001210170
:1026E00040198919FFF7D4FF641C2404240CF5D089
:1026F00070BD70B5E64B024652014033D4182278C3
:102700000120002A13D1E269002552798A420FD2B2
:10271000A2695278002A0AD1204600F0E4FA022089
:1027200020706570E570A069C0886082002070BD6F
:102730006172012020706570F5E7F7B514460D460B
:10274000082939D1002C37D0D14A012140320098D4
:1027500000F0D6FACD4E294674362246002811D014
:1027600083691F78002F03D01B7B1778BB4209D1E8
:10277000C3691B78D35C1B09032B03D1F36898470B
:10278000002819D0C24A0221009800F0B9FA29465F
:102790002246002810D083691C78002C03D01B7BB4
:1027A0001478A34208D1C3691B78D35C1B09032B9F
:1027B00002D29B00F3589847FEBD70B5B74D014655
:1027C0000024A000285800280DD0826992888A42EF
:1027D00009D10178AD4A89006032515888470020FC
:1027E000A100685070BD641C2404240CE9D070BDA5
:1027F000F7B51646074600240EE0019861010D1852
:10280000688A00280BD0401E68822878C0003158A2
:1028100028468847641CA4B2BC42EED3FEBD28788B
:10282000C00080194168284688470028F2D1284610
:1028300000F079FAEEE7954A10B51032944902207B
:10284000FFF7D6FF914A9249383240310120FFF715
:10285000CFFF10BDF8B50446E6691746327801206F
:10286000BA5C15072D0F19D07279AA4216D38D4282
:1028700014D22078022803D9207A092100F0A5FB80
:1028800070782A46C11920460A30FEF7A5F865720D
:1028900001202070A069008960820020F8BDF7B592
:1028A0000446806901274078002829D1E56902980B
:1028B00029780818FEF7A1F806056879360DB042A8
:1028C0001ED22078022803D9207A092100F07DFB4E
:1028D00029780198421AA9780298091820460A30E6
:1028E000FEF77AF83146204600F0FDF90020E0704E
:1028F000A069C17BE17102212170008960820027FB
:102900003846FEBD70B5044621780125C06903290B
:1029100021D1A38A002B1ED00678E178965D491C50
:1029200009073607090F360F8E4216D1E1705B1E7C
:102930001904090CA18213D04379407881181846F4
:1029400000F02FFB05000DD0207A012100F03DFBA7
:10295000204600F0E8F9284670BD207A0821F5E706
:10296000637AEAE7A06940896082A0790028F2D002
:10297000A18A0029EFD0401E0006000EA071EAD106
:102980000021204600F0D4F9E5E710B5044623788D
:102990000121C069042B2FD10178515C0907090F6F
:1029A00005D001291DD002291FD007201EE0C178C3
:1029B000515CA1710079105C7F2806D9F138092893
:1029C00001D2012003E07F2001E0401CC0B2607111
:1029D0000321217000216170A169C9886182207181
:1029E00009E0A0690089608205E0062000F022FB72
:1029F000204600F098F90021084610BD704710B538
:102A00000446002000F016FB204600F08CF910BDB3
:102A1000C178491CC1700421017000214170816995
:102A200009894182704710B5044600206070E07843
:102A3000401CE070A08A00280DD0A079002811D099
:102A4000401E0006000EA07104D104202070A06971
:102A50000089608210BD002000F0ECFA204600F0F2
:102A600062F910BDA069C08860826079207110BDD4
:102A700010B58178002904D0012911D000F053F954
:102A800010BD03210170816949890DE0AC3900084E
:102A9000D8060020203300084033000880020020C0
:102AA0000221017081690989418210BD70470120AE
:102AB000704710B50446407A00F05EFA00280DD148
:102AC0002146607A0A3100F06CFA0028207A06D09C
:102AD000012100F07AFA204600F025F910BD00210E
:102AE000F7E70020704710B50446C08A00F044FAAA
:102AF000002806D0062803D10221204600F018F94C
:102B000010BDE069214680790A3100F04AFA0028B8
:102B100007D0207A012100F058FA204600F003F98E
:102B200010BD0021E9E710B5C1790022002905D0C8
:102B3000491EC171012100F0FBF80122104610BDB1
:102B400010B50446808A002806D1207A002100F0C2
:102B50003CFA204600F0E7F810BD10B5007A0C21D1
:102B600000F033FA002010BD70B50446407800280C
:102B70002AD1A16925460A780A35E069002A01D0E0
:102B80000A7B2A70A17803780907090F3031E954CC
:102B9000C378A279EA5402796179A954E069A169FC
:102BA000C0798E8808210A1A2818CC21FDF71CFF4D
:102BB0002A4608213046FFF7D5FC002804D1012021
:102BC00060707D49B0000C5070BD10B5817801294E
:102BD00003D0007A0A2100F0F8F9002010BDF8B502
:102BE00004464078002828D1A16925460A780A358C
:102BF000E069002A01D00A7B2A70617A027809070D
:102C0000090FA954E169607A4978A2694618978842
:102C1000691800F0F9F90820821BA819CC21FDF7EA
:102C2000E3FE2A4608213846FFF79CFC002804D121
:102C3000012060706049B8000C50F8BD10B50A2042
:102C400000F0F8F9002010BD70B504464078002867
:102C500026D1A269254613780A35E18AE069002B5E
:102C600001D0137B2B7009050122090D120389186D
:102C700002785019FDF7E5FEE069A2698178807954
:102C80009688691800F0C0F92A4608213046FFF7F7
:102C900069FC002804D1012060704749B0000C5045
:102CA00070BD10B50A2000F0C5F9002010BD10B5A8
:102CB0004178002909D10179002904D0491E09066B
:102CC000090E017101D100F03EF810BD10B50A20C7
:102CD00000F0B0F9002010BD704710B50B2000F0D7
:102CE000A9F9002010BD70B50446C0690D464179B0
:102CF000284600F0AFFAE582491C6172A08270BDDF
:102D000030B50446002003460AE05D01AD18AD6908
:102D10006D88A54202D15801801830BD5B1C9BB262
:102D20008B42F2D330BD0021017041704182704767
:102D300004220270002242708269D3884382927B0F
:102D4000827181707047F8B50446A16925460A78FA
:102D5000C0690A35002A01D00A7B2A70E17802781E
:102D60000907090F2031A954A08A401E07043F0C0F
:102D70001FD0E0694079E169A269497892884618D4
:102D80006918009200F040F90820821BA819CC2194
:102D9000FDF72AFE2A4608210098FFF7E3FB0028EA
:102DA00006D1A782012060700098034980000C5072
:102DB000F8BD607ADFE700008002002030B5254BC7
:102DC000254C002108460022C50702D04008584083
:102DD00000E04008521C92B2082AF5D38A00491C30
:102DE00089B2A050FF29EDD930BD10B50021C943EB
:102DF000FEF719FA10BDF8B515460C460646FEF763
:102E00000AFA01460020144A07E02F5CCBB27B404F
:102E10009B00D358090A5940401CA042F5D33046C4
:102E2000FEF701FA0020F8BDF8B516460F4601245A
:102E3000FEF7F1F90546042F0AD13046FDF7F0FD03
:102E4000E943884201D1002402E03046FDF70AFE42
:102E50002046F8BD2083B8ED38070020BC4800218B
:102E6000017041707047F0B58BB0002069468883CF
:102E700088810546B748B84C81880191C7682669A2
:102E80007819726807A99047281885B26846838B1D
:102E9000002062888446E16815E0182444430C5BF6
:102EA0009C420ED11822504344180FD0A16800292B
:102EB0000ED0AA480140AA48FEF717FC002805D109
:102EC00006E0401C80B29042E7D36446707819E077
:102ED000A088002802D00199884205D8E0880028FF
:102EE00004D00199884201D2132027E0A16800296B
:102EF0000BD09A48113801409948FEF7F6FB00289C
:102F000003D0B078002810D018E0A168002908D0BC
:102F1000944801409248FEF7E8FB002801D0332096
:102F20000CE0E0680028AAD101E0002C06D001984E
:102F30007919401B636980B203AA98476946898959
:102F4000844A491989B200F0BEF80BB0F0BD81483F
:102F50000078800700D586E7704710B57C48417837
:102F6000012904D14188002902D0491E418010BDA9
:102F70000220FEF77AFB10BD764902460B8800203E
:102F8000002B01D0052070470B89934201D2062007
:102F9000704700234B808A8001220A806C494B7065
:102FA000704770B56B4C0646227800256088D207C2
:102FB00008D0E26810183246FDF70EFD60888019CF
:102FC000608000E00125284670BD70B50024614D89
:102FD000002904D06C802C8000F067F870BD5F4A37
:102FE000002802D0012808D102E05C49083901E03C
:102FF0005A4910395A48FEF755FB6C800220288048
:103000000020FEF732FB70BD70B5524C0B460646F1
:10301000217800256088490709D5E16832460918FA
:103020001846FDF7D9FC60888019608000E0012512
:10303000284670BD10B5474800214180018000F04E
:1030400034F810BD42484849418001214170704721
:103050003F490020487070473D4900200978002909
:1030600000D1012070473A4900200870704700786D
:1030700008800120704710B50378354A1C0605D535
:10308000012414705A06520E027001E000231370DE
:1030900000784006400E0880012010BD10B50C4697
:1030A000FDF7ABFC2080022010BD2C4910B517396C
:1030B0002B48FEF71AFB002804D025482A494180F6
:1030C0000121417010BDF8B5224D002600280BD01B
:1030D0000446032021490090174610392048FEF786
:1030E00004FB00281AD113E019480078002829D1E0
:1030F0001089884226D3D180D26810784030107071
:10310000042028800020FFF7F4FA00281AD11CE0E0
:10311000112C17D0122C15D0312C13D00098F88018
:10312000F9687F2208780A70F9684870F868847036
:103130000420288000200099FFF7DBFA002804D043
:103140002E8002E02E80FFF7B0FF01480670F8BD28
:103150008402002044020020343700081800004098
:10316000A406002000330340881300000446A06832
:103170008047E068FEF762FAF9E7000070B52F4873
:1031800041690122520411434161416952001143D6
:1031900041610920C0060268FF2101310A43026033
:1031A00003688A0013430360254803680B430360E8
:1031B000016811430160026840210A43026003680C
:1031C000102213430360838A042423438382036809
:1031D0000C022343036003688C0123430360848A49
:1031E00080239C438482848A08252C438482848A99
:1031F00014438482828A0A438282818A2022114374
:103200008182818A19438182FEF7E2F9FDF7AEFBE4
:103210000446022801D1FDF7BFFBFEF7EBF920467B
:10322000FEF7F7F90020401C80B20428FBD30548C4
:103230000168486889688847002070BD0010024016
:1032400000040048640200207047FEE770477047A2
:103250007047704730B50B460146002020220124FC
:1032600009E00D46D5409D4205D31D469540491BBA
:103270002546954040191546521E002DF1DC30BD03
:103280000321001D401E037812021A43491EF9D57E
:1032900010467047064C0125064E05E0E36807CC52
:1032A0002B430C3C98471034B442F7D3FCF70CFF87
:1032B000483A0008683A000802E008C8121F08C12E
:1032C000002AFAD170477047002001E001C1121FA7
:1032D000002AFBD170470000E80300000200000054
:1032E000A9090008C309000802000000E032000834
:1032F000000000000907000000000100DF070000D7
:10330000010000008907000002000000F032000800
:103310003B2700080100000000330008BB2700081D
:10332000000000000000460046009600000000007B
:103330000001010000004600460096000000000069
:10334000000000000000460096004600000000005B
:1033500089CED73FBBB5B5B5BABABABA020000003C
:10336000C0000020040000005033000802000100EB
:10337000005000080400000054330008020001005F
:10338000045000080A0000000000000001000100D5
:10339000E0500008150000000000000001000100DE
:1033A000105100080C0000000000000001000100A6
:1033B000585100080A000000000000000100010050
:1033C000705100081000000000000000070000001D
:1033D0005C33000801000000000002001F030040F1
:1033E00000000000000000009D1E00080200000018
:1033F000000002001E03004000000000000000006A
:10340000F11E000803000000000002001D03004040
:1034100000000000000000003F1F00080100000045
:10342000000002000000000000000000000000009A
:103430006F1F000889F1000000000000000000007C
:1034400000000000000000008F1F000887F100004E
:10345000000000000000000000000000000000006C
:10346000AF1F000884F10000000000000000000011
:103470000000000000000000EF1F000893F10000B2
:10348000000000000000000000000000000000003C
:10349000CF1F000895F100000000000000000000B0
:1034A00000000000000000000F20000809000000DC
:1034B0000200020000000000000000000000000008
:1034C0002F2000080A00000006000600000000008F
:1034D0000000000000000000F720000801000000CC
:1034E00002000200000000000000000000000000D8
:1034F0009320000802000000060006000000000003
:1035000000000000000000005B2100080300000034
:1035100000000000000000000000000000000000AB
:10352000BF210008000000000000000000000000B3
:103530000000000000000000BF21000884F100002E
:1035400004000D000000000000000000000000006A
:10355000D121000800FF000005000D00120200400C
:1035600000000000000000002D2200080202000000
:1035700004000400120200400000000000000000EF
:10358000BF22000801FF00000400040012020040F6
:103590000000000000000000F1220008030200000B
:1035A000040004001420004000000000000000009F
:1035B000E92100080100040000000000162200407C
:1035C00054350008403A00080000000000000000E8
:1035D00000000000000000000000000000000000EB
:1035E0006924000801000000000000000000000045
:1035F00000000000000000006F240008020000002E
:1036000000000000000000000000000000000000BA
:103610006F240008100003000200020000000000F8
:10362000D4330008383A00080000000011000100FF
:10363000020002001E0300401C340008383A000853
:103640000000000022000500030003001F030040EB
:1036500034340008403A000800000000270004004D
:103660000200000016030040AC340008383A00089D
:103670000000000028000200030003001E030040B9
:103680000C350008383A0008000000002E00010048
:1036900004001400160200403C350008403A0008BF
:1036A000000000003100010004000000162200406C
:1036B000B4350008383A000800000000340000006B
:1036C0000B000B0012020040000000000000000090
:1036D0001B23000836000000030000001202004017
:1036E00000000000000000009B23000837000000DD
:1036F000050005001202004000000000000000006C
:103700002F2400083E000100020002001F030040B9
:10371000CC350008383A000800000000850002009F
:10372000020002001E030040E4350008383A000899
:103730000000000000000C0000000000000000007D
:1037400014360008303A000800000000005000085D
:1037500000A00100000800000200000001000000BD
:103760005802002054020020010000000000000068
:1037700000000000000000000000000000500008F1
:1037800000A00100FFFFFFFF0100FFFF0200FFFF9D
:10379000FFFF0000040000005C0200205602002031
:1037A0000000000000000000000000000000000019
:1037B000000000000000002000020000FFFFFFFFEB
:1037C000FFFFFFFFFFFFFFFFFFFF00000100020000
:1037D00001000000010000005C370008000000004C
:1037E00000000000151C0008251C00080000000057
:1037F000410C0008910C0008DB0D0008B10C00081A
:10380000570E0008040000000000002000400000E7
:10381000DC370008018000000000000800F0010013
:10382000F037000802000000043800080200000021
:10383000943900086D310008010000002C380008A0
:10384000010000007B24000804000000952400080B
:1038500002000000A3240008D11C0008F31C00088B
:10386000FB1C0008F11C0008891C0008B71C00089C
:10387000991C0008552500085D250008DB25000877
:10388000652500080D2600080300000040380008E8
:10389000021003000000000073160008A9150008BC
:1038A000FB1C0008B9150008000105005838000885
:1038B000000000006838000874380008FB1C00088D
:1038C000251D0008331D00085F1D0008711D00083C
:1038D000BD2D0008EB2D0008F72D0008292E00084B
:1038E00000000000006400406000000000000000D4
:1038F00003003A0200000000070000000200000080
:1039000007000000000020E10000E0FF0000E0FBF5
:103910000000E0FF0000C0240000E0FF000040388D
:103920000000E0FF0000A0380000E0FF000000669B
:103930000000E0FF0000A06C0000E0FF000000704D
:103940000000E0FF0000A0700000E0FF0000007F2A
:103950000000E0FF000020E10000E0FF0000E0FBCD
:103960000000E0FF0000E0FB0000E0FF000000803E
:10397000000000F0065001003201F4CC06500200B5
:103980003201F4CC025101CCCCCCCCCC065003009B
:103990003201F4CC00000000591E00088D1E000802
:1039A000771E0008752400080000000000010201D5
:1039B000020706030102030203060504AD2A0008FC
:1039C000AF2A0008B32A0008E32A0008E72A000803
:1039D000272B0008412B00085B2B0008692B0008EF
:1039E000CB2B0008AD2A0008AF2A0008DF2B000807
:1039F0003D2C0008492C0008A32C0008AF2C00081F
:103A0000CD2C0008D92C0008DB2C0008FD2900086B
:103A1000FF290008112A0008272A0008712A000837
:103A2000552800089F280008052900088B29000850
:103A300001117F006F30000802127E00773000080D
:103A4000033122009D300008683A0008200200205F
:103A500068000000B8320008D03A00088802002050
:103A6000B00C0000C832000800000000010203048E
:103A700001020304060708090048E80100000000ED
:103A8000000000000102030406070809000000000E
:103A9000000000001002000088020020000000006A
:103AA0000000000000000000000000000000000016
:103AB0000000000000000000010001000000000004
:103AC00000000000000000000000000000000000F6
:04000005080000C12E
:020000040800F2
:04500000BBB5B5B5D2
:020000040800F2
:10500400F9120A1D0000000000000000000000006A
:020000040800F2
:1050140080290020455400084D5400084F540008CE
:10502400000000000000000000000000000000007C
:10503400000000000000000000000000338E0008A3
:105044000000000000000000535400086B8E0008AC
:105054005754000857540008575400085754000880
:105064005754000857540008575400085754000870
:10507400575400085754000857540008BD550008F9
:105084005754000857540008575400085754000850
:105094005754000857540008575400085754000840
:1050A4005754000857540008575400085754000830
:1050B40063700008575400085754000857540008F8
:1050C400B155000857540008CB5500085754000840
:1050D40070470000006400400001042153573A3235
:1050E4002E30302E435F3138303930365F32303134
:1050F40038000C0048573A433A302E3602E008C8CC
:10510400121F08C1002AFAD1704702003338353023
:105114003030302D53463034200000001384010019
:1051240003003A0232303138202020202020002091
:1051340001E001C1121F002AFBD170474446534BC2
:105144003A3A445652200000010500004AEA000899
:10515400881300004857323031383036323000007E
:1051640010EB000838EB00080001C8005357323038
:105174003138303930362D31353A313100000000C4
:10518400000000004A37482D323031380348854644
:1051940009F08AF8004800474F530008802900208E
:1051A400954C00206060642003F05CFD934D944EA8
:1051B400606800283EDD8000285820283ADA2868F4
:1051C400904980000858A06080470020626805E08C
:1051D40081004B195B68401C6B50C0B29042F7DBF6
:1051E400894F012003F03EFD00F077FC642803D8CA
:1051F40086483968814202D1062000F075FCF07AB5
:10520400092801D00A2802D1072000F06DFC00F023
:1052140067FC02280BD000F063FC032807D000F0E1
:105224005FFC062803D000F05BFC0728D9D1606836
:10523400401E6060012003F015FDB9E710B506F0CB
:105244002DFF06F021FB06F0C9FC08F022F807F058
:10525400CAFB04F0F7FF6F496D48086010BD00F009
:105264002DFF00F083F803F082FF06F0C5FE06F080
:10527400E9FE05F02AF8042005F058F802F056F883
:105284000021022005F0D8FB00F056FBFFF7D6FF03
:10529400012003F0E7FC01F0D5FBF7E7002400F060
:1052A40089FB00F025FC02F083F800F008FC642080
:1052B40003F0D8FC584D544F2E462036012003F0FD
:1052C400D1FC641C052C15D138680024A8420AD1ED
:1052D400707B022805D0032803D0062801D00728B4
:1052E40001D14A48386044480078002802D0386820
:1052F40000F022FC00F072FCE0E70A23474A002198
:10530400474802F08AF90923464A0021464802F038
:1053140084F93A4A0B23121F0021444802F07DF914
:1053240000F022F901F064FC01F0A2FE404C01F00F
:105334003CFB01F061FB01F006FC01F043FC20683A
:105344008047012003F08EFCF1E710B500F0DFF890
:1053540000F083FA02F0C3F90823364A00213648E4
:1053640002F05BF902F069FA002010BDFEB50121DC
:10537400480406F074F80121880406F070F801214D
:10538400480606F091F80120C00200900124684606
:105394000471002545718571284EC47169463046F3
:1053A40005F0FBFB20020927FF06B86104220B214C
:1053B400384605F05EFC04220C21384605F059FC01
:1053C4000320C0020090022168460171032141714B
:1053D4008571C4716946384605F0DFFB1E216846B5
:1053E40001724572847202A805F012FEB08AE102CD
:1053F4000843B082FEBD0000C4000020D814002081
:105404009815002098E300084C0100200033002088
:10541400AAAA00000030004080330020140C0020B1
:10542400A15200087410002063520008A55100081E
:1054340074010020B4070020FF5200080004004853
:105444000448804704480047FEE7FEE7FEE7FEE71E
:10545400FEE7FEE7615400089151000847480168DF
:105464000122114301604168454A114041600168CD
:10547400444A114001600168012292049143016091
:1054840041683F22120491434160C16A090909013C
:10549400C162016B3C4A11400163416B49084900F8
:1054A40041630268012109040A430260026892030D
:1054B400FCD542680323DB039A43426000BF00BF6C
:1054C40000BF00BF42680A4342600021C1624268D3
:1054D4000F239B049A434260026801231B061A436C
:1054E400026002689201FCD5426892089200426010
:1054F40000BF00BF00BF00BF426802231A434260DE
:1055040042681207920F022AFAD181607047F8B5F7
:105514001A4E71680C2001401C481D4C03D004290C
:1055240001D0082909D0206070681A490006000FCC
:10553400085C2168C1402160F8BD7168726803236A
:10554400DB031A4089020D0FF16A01270907090FCD
:105554003F04491CAD1CBA4202D09A4200D10E4805
:1055640008F070FE6843DEE70D480C494161FF21F5
:105574000131816103210161704700000010024084
:105584000CB8FF08FFFFF6FE2CFEFCFF00127A00A9
:10559400D000002086E30008006CDC02409C000080
:1055A40000E000E00D490120086070470C48016AE2
:1055B40040221143016270470A48416807221203DE
:1055C40011434160704710B507481F24046003F07D
:1055D40009FF05488038046010BD0000D400002095
:1055E400004400400000024080E100E0704710B534
:1055F4000A2003F037FB012001F040F9022000F0FB
:1056040073FA10BD10B5D6486424C07A09280FD2A5
:10561400002211460C2000F07EFB012000F078FDF2
:10562400641EA4B200F05CFA022801D0002CF4D16C
:10563400002001F023F9CB48007800280DD001F0B8
:105644002FFF642003F00EFBC748818A0422914394
:1056540081820168102211430160C449002008704E
:10566400132006F04AFB10BD10B5BD48C06A0028DF
:1056740008D0002001F002F90A2003F0F3FA012017
:1056840001F0FCF8022000F02FFA10BD10B5B44868
:10569400C07A092807D0B64801210278002A06D02A
:1056A4000022027004E0012001F0E8F80AE0017031
:1056B4000278B048B04B02711A704170194600204C
:1056C40006F01BFBAD480221417310BD10B5A44880
:1056D400C07A09280BD00A2003F0C4FAA14900209B
:1056E4000870FFF78FFFA5480221417310BD012008
:1056F40001F0C4F8F7E710B500221146012000F0CC
:105704000AFB10BD10B500221146022000F003FB75
:1057140010BD944A10B514320221172000F0FBFA90
:1057240010BD10B500221146062000F0F4FA10BD99
:1057340010B500221146192000F0EDFA10BD10B585
:1057440000221146032000F0E6FA10BD10B5002235
:105754001146112000F0DFFA10BD10B500221146E9
:10576400042000F0D8FA10BD10B50022114605201F
:1057740000F0D1FA10BD10B500221146072000F048
:10578400CAFA10BD774A10B5121D01210D2000F090
:10579400C2FA10BD10B5002211460E2000F0BBFA6B
:1057A40010BD10B500221146142000F0B4FA10BD4B
:1057B40010B500221146152000F0ADFA10BD69495C
:1057C40010B567480A46807B8860083201210A20A8
:1057D40000F0A1FA10BD10B561486249807BC86031
:1057E4006749012008700C2006F087FA5D4A012100
:1057F4000C320B2000F08FFA10BD10B5614801780F
:10580400614801606149024609784160604909784C
:10581400816060490978C1605F49097801615F4925
:10582400097841610621182000F075FA10BD10B501
:10583400002211461A2000F06EFA10BD10B50022A5
:1058440011461B2000F067FA10BD464A10B510320D
:1058540001211C2000F05FFA10BDF0B550484169E9
:1058640001225204114341614169530019434161CA
:1058740041699200114341610921C9060868D412A3
:1058840020430860086852121043086036480568CF
:1058940025430560046814430460056840242543D7
:1058A40005600568160135430560066895002E43BA
:1058B4000660868A8027BE438682868A08273E43FE
:1058C4008682868AA6438682848A2026B44384827A
:1058D400848A1026B44384820C680326B602B44337
:1058E4000C600468B601B4430460C46886013443A0
:1058F400C460046803263606B4430460848A2C43D7
:105904008482C46885032C43C460046885022C43E4
:10591400046004681C430460838A93438382828AFC
:10592400EB121A4382820A6833149A430A600168AC
:10593400302291430160F0BD10B51B4C1948206022
:105944001A482060002060607D204001A060012092
:1059540003F088F9E0680028F9D11548206010BDEB
:1059640098150020D80000200004004859010020A8
:105974005F0100200416002052010020A033002003
:10598400550100206C01002000150020B601002004
:10599400B5010020B4010020B3010020B2010020B1
:1059A40000100240CCCC00000030004055550000EF
:1059B400AAAA000010B5384A5069012149040843D5
:1059C40050610920C0060368F024A3430360036800
:1059D400A02423430360036A1124240223430362A3
:1059E400D0690843D0612D48016849084900016025
:1059F40001682B4B19400160016840231943016081
:105A040001682023194301602649818141680323E9
:105A14001B039943416024494B685B085B004B605E
:105A24008368C02423438360546901231C43546165
:105A34001E4ACA60194A28320A6100228A604A68EA
:105A44001B4C22434A604A681A434A608A699A4353
:105A54008A61124A24320A62164A4A621422CA61CC
:105A64008A69134C603422438A618A691A438A61C1
:105A74000168082211430160016804221143016096
:105A84000168194301600C498004086010BD034992
:105A9400203108817047000000100240004400409B
:105AA400FFEFFFEF9506000040000240F8000020E1
:105AB4004A0A00001815002080E100E07047F94907
:105AC400F748486070477047F648F749406888428D
:105AD40001D10120704700207047F348C078704717
:105AE400F1482030407B7047EF49203148737047BC
:105AF400EB48EE49001D08600521001F01700921D3
:105B04004170E94810210170002141707047F3B5DC
:105B1400002481B02646E64F4D1D0AE00198001985
:105B2400132803D9142108F08DFB084680003E5049
:105B3400641CAC42F2D3FEBDF0B5DE4A41780224C7
:105B4400146051600478946004780023641807E0BA
:105B54009D002E18AD187768EF6075682C195B1CD2
:105B64008B42F5D3880080180323C46003610020AE
:105B7400491D03E08300D45CD450401C8842F9D30F
:105B8400C8484268C848824202D1C278521CC270D6
:105B9400C94842685208520042608160416801224B
:105BA40011434160F0BD10B5C44901200870C448D8
:105BB400C17A0A2901D10621C172C24903200870A1
:105BC400132006F09AF80121042004F0CBFCBE480F
:105BD400BE49007880000858804710BDFEB50024F7
:105BE400B34EA000305802286FD1601C01901328D6
:105BF40003D9142108F026FB00E0611C8800355805
:105C04000B2D62D260190090001D132805D900984D
:105C14001421001D08F016FB01E00099091D8800FD
:105C24003058032872D10198132804D91421601C18
:105C340008F008FB00E0611C88003758A01C0290A3
:105C4400132803D9142108F0FDFA00E0A11C8900EF
:105C54007158CF1900260FE0A019C11C132905D9CA
:105C64001421C01C08F0EEFA084600E0C01C8100B4
:105C74008F484058C719761CAE42EDD30098FFB246
:105C8400C01C132805D900981421C01C08F0DAFAA6
:105C940001E00099C91C864E88003058B84235D1BD
:105CA4000298132804D91421A01C08F0CBFA00E0B0
:105CB400A11C8800844F305C38700198132805D9E2
:105CC4001421601C08F0BEFA01E01FE0611C890089
:105CD400715C7970002611E0A019C11C132905D943
:105CE4001421C01C08F0AEFA084600E0C01C810074
:105CF4006F484058B100C919761C4860AE42EBD3D6
:105D040029462046FFF703FFFFF74DFF641C142CC0
:105D140000D265E7FEBD70B5634B10241C701D46B0
:105D2400002420356C739D786D1CEDB29D705D6010
:105D34009860204604E0860020CAF618401CF560EE
:105D44008842F8DB891C59705D48DC70C17A55487B
:105D54000A2903D0092901D0436070BD504941602C
:105D640070BDF8B5584F564C38790106090F2170AB
:105D74000107090F617056490870142005F0BDFF32
:105D8400387A00260006410F52480125A1700129E6
:105D940005D0032905D0052905D0032104E00670A8
:105DA40003E0057001E0022101704A49092005F071
:105DB400A4FF387A4849C006400FE070012802D099
:105DC400022802D002E00D7000E00E7042490A2061
:105DD40005F093FF387A41498007C00F207108709D
:105DE400042005F08AFF387AC007C00F6071387B41
:105DF4000106890F8006A171C00FE07116D0002141
:105E0400032004F0AFFB387B3549C006C00F207275
:105E14000870022005F071FF387B0007000F6072E4
:105E2400A17A81420AD0012902D005E00121E7E7E5
:105E3400002801D100F008FC607AA072617A294838
:105E44000B0008F091FA090608080A0E0C0C0C0C59
:105E54000E00067005E0057003E0032100E0022156
:105E640001702049032005F048FF17480D4F007CBE
:105E74000006000FE07207281B483BD006707D70B7
:105E84001949052005F039FFE07A184C01283CD067
:105E940007283AD016494B78002B38D03DE0000053
:105EA400003300204801002080330020F40000204B
:105EB40018150020F800002040000240C400002013
:105EC40098150020590100206815002018E40008E6
:105ED400AB010020A8010020A9010020A40100209A
:105EE400A2010020A3010020A501002053010020ED
:105EF40004160020057078780128C1D15C48017827
:105F0400002900D105707E70BAE7257006E00B7990
:105F1400012B02D18978002900D02670554B564AAE
:105F2400564902281ED004281CD016700D7018681B
:105F3400EF22017D114001755148067001460B2086
:105F440005F0DBFE4D490F2005F0D7FE4A49062037
:105F540005F0D3FE4B4EF06900281CD020780128B0
:105F640017D018E01570474A022803D00878012892
:105F74000BD00CE00D7038780128E3D1186810229A
:105F8400017D114301753E70DCE70E7056613D7072
:105F9400D8E73D4805703D49012005F0AEFE3C4C74
:105FA4003C49207C0007800F30730870082005F0FE
:105FB400A4FE207C38498007800F7071207D400644
:105FC400800F70730870122005F097FE207D33490E
:105FD400C006400FB0730870112005F08EFE207DBE
:105FE400218B8007800D40183082F8BD70B52C4895
:105FF400274980784A6890421DD1294A087B20327B
:106004005073022802D0127B032A14D18968C82550
:10601400244C062910D00B291BD0012218291FD08B
:10602400172908D1174860308179002903D182717A
:106034001E491D48086070BD1D4908700E2005F0FA
:106044005CFE258100201B49E071087000F0FCFA19
:1060540070BD194908700C2005F04FFE658170BDB4
:106064000228FCD1074988746270A27670BD0000D2
:1060740060010020F4000020A6010020AA010020F5
:106084005801002098150020A5010020530100208C
:1060940068150020A7010020AD010020AC010020FC
:1060A40080330020041600200767000874010020D4
:1060B400560100206701002055010020F8B5F84D75
:1060C400F84F0926EE720024FC70F91C012005F03B
:1060D40014FEFC73B91C002005F00FFE7C72B91984
:1060E400132005F00AFE28466C3044700221017426
:1060F400EE720246AC7432212C3A51840121E962D9
:106104004176C823938420329471A9658476F8BDBE
:1061140070B50546002405E0FFF790F8012002F071
:10612400A1FD641CAC42F7DB70BD10B5DD4CA07C56
:1061340001280AD1DC480068002806D10022114653
:106144000920FFF7E8FD0020A07410BDF8B5D44D78
:106154000026E87A2C466C34D24F042801D0022859
:106164001CD1D049FE73BE70891C002005F0C5FD0A
:106174002671E87A042811D1B86A0028686901D028
:10618400401C6861FF212D31884207D9C748EF229E
:106194000068017D11400175BE626E61C3480168EB
:1061A400087DC0060CD4787E7A7B1043BA7B1043FA
:1061B40006D03220A861087D1022104308756E6154
:1061C400BA7E3846002A0AD086620A7DD30602D5F2
:1061D400EF231A4001E010231A430A758676B0496A
:1061E4008969002903D0AE48491E8161F8BDAE4DCE
:1061F40029688C460029F9DCA949427E01274031EF
:10620400012A11D96423CB83521ED2B26346227071
:10621400002B07D1A64B1A60A64B10221A602F60E0
:1062240046768762467602E0CA8B002A02D0CA8B81
:10623400521ECA83817A002900D166740246C07A4C
:10624400002800D1A674137B9E46002B00D1E6746F
:10625400537B0093002B00D12675924A927B002A2F
:1062640000D166758E4AD27A022A02D0042A20D03E
:1062740033E0627C002A0FD101290DD18849497B82
:10628400002909D0296812228C468B008949CA50FA
:106294006146491C29606774A17C00291DD101282D
:1062A4001BD17F48407B002801D013221EE0A77435
:1062B40013E0627C002A0BD1012909D12968182234
:1062C4008C468B007B49CA506146491C296067741F
:1062D400A17C002901D1012807D07148407B002806
:1062E40046D0E17C002908D014E0172228687149BF
:1062F4008300CA50401C2860D9E77146012909D19E
:10630400296811228C468B006A49CA506146491C8F
:106314002960E774032811D0217D00290CD100994C
:10632400012909D1296814228C468B006149CA507D
:106334006146491C2960277502280AD05948C6714C
:1063440058491020C91D05F0D8FC607D002803D0F1
:106354000EE05448C771F3E75248807B012807D107
:106364002868152283005349401CCA502860677569
:106374004E480068007DC006C10F4A4801720146BC
:1063840008310B2005F0B9FCF8BDF8B54548494F74
:10639400C07E0126444C424D002830D0414A517FF2
:1063A400491CC9B251772A466C3210766A7B9042F6
:1063B40022D02268002A1FD13A4AC9071CD00128DA
:1063C40004D0022804D0032805D128E00D2000E0E1
:1063D4000E203860266000209662686133481023DE
:1063E4000168087D18430875C006C00F2D49107256
:1063F40008310B2005F081FC2A490020C876284882
:1064040028496C308278CB7C9A423DD0002A08D04F
:10641400E97A002950D02068002830D034E00F20D9
:10642400D7E700224270EB7A012B20D0072B1ED035
:10643400042B21D0022B1FD02068002816D10D2058
:10644400386026600E708E6218486A6102681023F4
:10645400107D18431075C006C00F087211490B2037
:10646400083105F04AFC642002F0FCFBF8BD20680A
:10647400002809D1072005E00A70867004E0042989
:106484000AD00C2038602660E87A022801D004285B
:10649400ECD1FFF75BFEF8BD112038602660F8E709
:1064A4009815002050010020C8000020F4000020AE
:1064B400DC000020D8140020A97C022900D14670F9
:1064C40000218170F8BD70B5FE4CFF4DE179E87D87
:1064D4000026814229D00120002902D0012901D0BF
:1064E40023E0E071F7496C39C97A072906D00129FC
:1064F40004D0F64B196800290BD016E00320F249AA
:10650400A871891D0E2005F0F8FBC8202081E671D2
:106514000EE0EF4A092111601860EB49A871891D4A
:106524000E2005F0EAFBE671EE75208900280BD0F9
:106534002089401E80B22081012805D1E249AE7134
:10654400891D0E2005F0D9FB608900280AD0401E61
:1065540080B26081012805D1DB496E71491D0C2090
:1065640005F0CBFB70BDD848D649027F00206C39BA
:10657400002A02D1D34A88749076C87A00280BD1B5
:10658400887C012808D1D1480168002904D1D04A67
:1065940016211160012101607047F0B5C94B00213B
:1065A4002C3B9A8CC748002A03D0521E9A848175CA
:1065B400F0BDC54B01255A7C002A03D04479002C38
:1065C40002D00AE0417108E0012A06D18278002A4B
:1065D40003D18279002A00D18575BA4A5E786C3A73
:1065E400BB4FD27AB94C012E0DD1072A0BD0022A07
:1065F40001D0042A05D12668002E02D10C263E6063
:106604002560857502E0867D012E06D1022A09D017
:10661400042A07D02668002E07D0072AC8D181751E
:106624005974F0BD81750171FAE7072AF7D0A54ABC
:106634000C3A1678002EF4D10B263E602560817545
:106644005974C8201070F0BD10B59F4901209D4AAF
:10665400C87310718870891C002005F04EFB10BDB2
:10666400984810B56C38C07A00280BD195482C385E
:10667400418C002906D0491E89B24184012901D1E7
:10668400FFF7E2FF8F48817D002901D001210171CC
:10669400017942781140827E1140C17001D00120FD
:1066A40010BD002010BD70B5864C0C3C207800282D
:1066B40001D0401E2070FFF7D3FF824901236C39BB
:1066C4000028834D814AC87A12D000280FD1487A15
:1066D40000280CD11068002809D17A48807D002850
:1066E40005D12078002802D106202860136070BDEF
:1066F400012801D00728FAD110680028F7D1072013
:10670400F3E7704810B56C38C07A082811D2FFF747
:10671400CAFFFFF742FF6B48807D002807D1FFF7CF
:1067240022FF00F007F8FFF7CEFEFFF72EFEFFF77B
:10673400FCFC10BDF0B5634E01202C3E3546403DB7
:10674400377F2A79A9782B7BEC78002F16D0ED7A45
:10675400AC46022D27D0042D25D05B4F2C363D7C32
:1067640075733F7D002F22D03073574F3F7E002F2B
:1067740020D0012F20D0022F20D021E02F786D7857
:10678400EF4210D0504D4F4F2A747A73022C0BD025
:106794002875491ECA0F51183C7349102976B973DC
:1067A400AB75FB733077F0BD00222A75F1E7022741
:1067B4003773DAE7B07303E0032700E00527B77304
:1067C400414F404EBF7DF773404E9542366806D028
:1067D4003E49002EE7D13F4A1923156020E0394D88
:1067E4002A7BA24204D1AC7B8C4201D19F421ED0B1
:1067F40000236B70002ED6D137490B600823022A80
:1068040012D004220A60AC7B640112190A602C7C49
:10681400BA01240112194A6061460029C3D12B49E7
:106824002B4A13600860F0BD1A460B60EBE725495C
:106834000C398A79002A03D188712349274A4A628C
:106844002149C97C0029EED16870F0BD1D486C381F
:10685400C17A00290DD1807C02280BD0012808D1EF
:106864001A480168002904D1194A1621116001212E
:106874000160704714491A4848627047F8B5114FCF
:1068840000266C3F3D461749174C403501284AD035
:106894000920F872A28A10208243A282A28A402090
:1068A4008243A282A28A20208243A282A28A8020DA
:1068B4008243A282044C0E4A0C48266210600E7079
:1068C400E67017E00416002050010020C8000020E4
:1068D400D8140020E8000020EC000020076700081E
:1068E40039670008C4000020000400480033002079
:1068F4004C010020E11C012005F0FFF9BE74B348EF
:10690400606238466C304670214666720931132045
:1069140005F0F3F938462E776030867132206884AA
:10692400C820A884F8BDF86A0028FBD00E70FFF7D1
:10693400C6F80A20F872A64FFE70FFF7E9FBA08A9A
:1069440010210843A0820120FFF7E2FBA08A402126
:106954000843A082A08A20210843A0821420FFF7C4
:10696400D7FBA08A80263043A0820A20FFF7D0FB01
:10697400A08AB043A08201207872394609311320DD
:1069840005F0BBF9288D9349884202D919204001AA
:1069940000E03220FFF7BCFBA08A3043A0828C4980
:1069A4000120C91C05F0A9F9F8BD10B588488A4A28
:1069B400C36A0021128A002B03D0D20500D5C1621C
:1069C40010BDD20516D4016B491C01630529F7DDFE
:1069D400062101630121C1628048C06A0028EFD00A
:1069E4000020FFF74BFF0A2002F03CF90120FFF7DB
:1069F40045FF10BD016310BD70B5754900230846FD
:106A0400826B4D6B501C744C002D08D0248AE40416
:106A140012D54B63C82A01DAFEF738FE70BD228A0C
:106A2400D20407D488630528F8DD06208863012092
:106A3400486370BD8B6370BD8863C828FBD1FEF7C3
:106A440045FE70BDF8B5654D614C6A6BA86A0127B7
:106A54000026616C90420FD95F48EF62828A04235A
:106A64001A438282026810231A430260002918D153
:106A740000F042FC676405E0EE62012905D100F0F4
:106A840055FC6664E86A01280BD0E663206C401C60
:106A94002064022829DD51486C30407E01281FD033
:106AA40023E0E06B2664401CE063022809DD4B48C8
:106AB4006C30407E002804D105F06AF847486C30F9
:106AC4004776A86D002809D0E06B322814D1E87A03
:106AD400092811D10120FFF7D1FE0DE0E6630BE098
:106AE40005F060F83D486C304676206CC82803DB1E
:106AF4003B480770FEF786FDE87A0A2816D1206A1B
:106B04007D21401C0901206288420FDD324DA88A94
:106B14008027B843A882142002F0A4F8A88A384336
:106B2400A88200210420266203F01CFDF8BD10B5E4
:106B340027480279417D8A4204D00171011D072052
:106B440005F0DBF810BDF8B5264C0226217A204862
:106B5400002910D0214D01276C35407D012920D01A
:106B6400022907D12049E875088000F013FA27723A
:106B7400FFF7DDFFF8BD1D4909780029816C01D0BC
:106B8400491C8164C829F5D30021816400F016FAF8
:106B9400002800D02672E0683228EBD3032020724C
:106BA400F8BDE97D814200D0267200F040FA6068A9
:106BB4000028F5D00948807C0228F1D1AF75002067
:106BC4006060F8BD10B500F0DEFA10BD5168000831
:106BD400500100201F0C00000004004898150020FC
:106BE400D800002020160020CC010020BC01002089
:106BF400F0B5012189B0880504F056FC0121880410
:106C040004F052FCFF4F05220D21384604F031F800
:106C1400022668460671012585716803009068465E
:106C2400C571002444716946384603F0B6FF052255
:106C34000E21384604F01DF8684606718571A803D4
:106C440000906846C57144716946384603F0A5FF53
:106C5400E80307900894C0100390EB48EB4D0290B2
:106C6400059402A90694284604F031F8012204216F
:106C7400284604F079F8E648047209B0F0BDF8B586
:106C8400E24C0E46074661682046890A8902616023
:106C940061684E221143616061682515A9436160F2
:106CA4006168FF221204914361606168AA01114383
:106CB4004160012104F0D6F803E0A069800700D503
:106CC400A762A069C00602D4A0694006F5D5606831
:106CD400284360600121204604F0C4F8012001F03B
:106CE400C1FFA069400707D5616A204631600121D0
:106CF40004F0C2F80120F8BD0121204604F0BCF8DC
:106D04000020F8BDF8B5C34DC04C0746A9606068C3
:106D14000E46800A8002606060684E21084360600D
:106D240060682115884360606068FF210904884316
:106D340060606068012149040843606001212046C5
:106D440004F090F8012001F08DFFA762012001F00A
:106D540089FFA662012001F085FF0121204604F08D
:106D64008BF8012001F07EFF291D3846FFF787FFCD
:106D7400002804D0A9686868884201D00020F8BDC2
:106D84000120F8BD10B5FF210020FFF7BBFF012053
:106D940001F068FF00210846FFF7B4FF10BD002191
:106DA4001920AFE738B50546002000906946192040
:106DB400FFF765FF964C002808D040238022002D61
:106DC40009D0012D0BD0022D03D112E0E068401C44
:106DD400E060002038BD00999943914307E0009991
:106DE400C0201943914300910140122001430091B6
:106DF40004E0009898431043014600901120FFF7E7
:106E040081FF0028E2D02574012038BD38B505463D
:106E14000020009069460F20FFF731FF7C4C0028CA
:106E240008D0002D0BD0012D0DD0022D19D0032D2B
:106E340003D11BE0E068401CE060002038BD0098EE
:106E44008008800003E0009880088000401C014610
:106E540000900F20FFF756FF0028EBD06574012047
:106E640038BD009880088000801CF0E7009803215A
:106E74000843ECE738B505460020009069460F202A
:106E8400FFF7FDFE624C002809D00C21002D0BD029
:106E9400012D0CD0022D17D0032D03D118E0E0688A
:106EA400401CE060002038BD0098884302E0009850
:106EB4008843001D014600900F20FFF723FF0028A0
:106EC400EDD02576012038BD009888430830F1E7DD
:106ED40000980843EEE738B50021801E00910300B6
:106EE40007F042FA0906080A0C0E101214162B00B9
:106EF40002240EE003240CE004240AE0052408E044
:106F0400062406E0072404E0082402E0092400E043
:106F14000A2469461020FFF7B2FE3D4D00280ED02A
:106F2400009801090901214310200091FFF7EAFEAE
:106F3400002804D0AC74012038BD002038BDE868B6
:106F4400401CE860F9E710B507211620FFF7DAFEC8
:106F54002F4C002813D001212020FFF7D3FE002856
:106F64000DD00D212120FFF7CDFE002807D00321ED
:106F74002720FFF7C7FE002801D0012010BDE068DC
:106F8400401CE060002010BD01462820BAE6042120
:106F94001920B7E610B5032809D0002809D0012824
:106FA4000AD07320FFF7F0FFFFF7F1FF10BD232095
:106FB400F8E7FFF7F4FE10BDE020F3E710B5114841
:106FC4000168890089080160818A42011143818234
:106FD400FFF7D8FEFFF7E3FE0D4C002822D0012076
:106FE400FFF7E0FE00281DD00320FFF70FFF002865
